:104000000080002001730000E9720000E9720000E6
:1040100000000000000000000000000000000000A0
:10402000000000000000000000000000E972000035
:104030000000000000000000E9720000557300005D
:10404000E9720000E9720000E9720000E972000004
:10405000E9720000E9720000E9720000ED720000F0
:10406000E972000035720000E9720000E972000098
:10407000F56F0000E972000045720000E97200006F
:10408000E9720000E9720000E9720000E9720000C4
:1040900000000000E9720000E9720000E97200000F
:1040A000E9720000E9720000E9720000E9720000A4
:1040B0000000000010B5064C2378002B07D1054BFB
:1040C000002B02D0044800E000BF0123237010BD84
:1040D000AC0200200000000034A9000008B5084B25
:1040E000002B03D00748084900E000BF07480368D9
:1040F000002B03D0064B002B00D0984708BDC046CC
:104100000000000034A90000B0020020A802002036
:1041100000000000022803D8024BC000181800E07D
:10412000002070470000002070470000F8B5144DD3
:10413000144E0123144A281C1449338002F096FFC0
:10414000134C071C1349201C03F096FC201C124939
:1041500003F06AFC391C1022201C03F0FEFC201C1A
:1041600003F078FC3188281CC9010C4A802303F035
:1041700009F8281C00210A4A082303F003F8F8BDB7
:10418000C802002018000020C4040020A0860100FE
:10419000F8060020949D00009E9D0000D90200209A
:1041A0005C03002008B5044A00231360034A13800F
:1041B000FFF7BCFF08BDC046680300205A0300207B
:1041C000F0B5274C0025A1B0258080232F1C254E5B
:1041D0003268974212D2802B07D10135ADB2E90186
:1041E00021486A4602F0CEFF00236A46D15C22884D
:1041F00001338A1822809BB20137E8E71B4D1C4926
:10420000281C03F039FC281C1A4903F00DFC10226D
:10421000281C316803F097FC281C174903F004FCA4
:104220002188281C102203F084FC144D0E4F00211D
:104230002A1C0823381C02F0A5FF33682968381CA3
:104240002A1C994203D1AD8821888D4206D0136083
:10425000238800219380082302F028FF21B0F0BDBD
:104260005A03002068030020C8020020F80600203E
:10427000F69D0000E7A00000AB9D00005C0300205D
:10428000F8B5204B00261A78B24238D01E4C1F4F8A
:1042900021883A1C8023C9011D4802F007FF1D4DEB
:1042A0001D49061C281C03F0E7FB1C49281C03F0D1
:1042B000BFFB2188281C0A2203F037FC0024E3B24C
:1042C000802C16D01A0702D1281C03F0C3FB3B5DDB
:1042D0000F2B03D8281C302103F0AEFB395D1022D0
:1042E000281C03F03AFC281C202103F0A5FB013414
:1042F000E5E7281C03F0AEFB024A00231370301CD4
:10430000F8BDC0466403002018000020D902002038
:10431000C8020020F8060020899D0000B79D00001B
:10432000F7B5C5097F2400910192ADB204400E1C7F
:10433000009AB31A019ADBB293424CD2802C02D17C
:104340000135ADB20024304A1388AB4223D02F4F41
:104350002F49381C03F068FB1022291C381C03F07D
:10436000E4FB2C49381C03F05FFB274B1022198813
:10437000381C03F0DEFBFFF783FF002840D1E90182
:104380002548264A802302F0FDFE002838D11E4A27
:10439000234B15801870224B1A78002A14D11F4A1B
:1043A000115D327891420FD0184F01221D49381CFF
:1043B0001A7003F039FB291C381C102203F0B5FBDE
:1043C000381C194903F04EFB3278144B01361A554C
:1043D0000134A4B2ACE7154FED013A682B19002661
:1043E00093420ED9803D2C193C60084C1049201C8A
:1043F00003F01AFB3968201C102203F0BCFB00E01C
:10440000061C301CFEBDC04618000020F806002027
:10441000BD9D0000CD9D0000C8020020D9020020F3
:1044200064030020D29D0000D99D00006803002095
:10443000E09D0000F7B5C4097F2500910192A4B268
:1044400005400E1C009AB31A019ADBB2934233D294
:10445000802D02D10134A4B20025184A1388A3424A
:1044600023D0174F1749381C03F0DEFA1022211C05
:10447000381C03F05AFB1449381C03F0D5FA0F4BD3
:1044800010221988381C03F054FBFFF7F9FE0028AE
:1044900013D1E1010D480E4A802302F073FE00287B
:1044A0000BD1064A0B4B14801870094B5B5D01352C
:1044B0003370ADB20136C5E70020FEBD1800002004
:1044C000F8060020BD9D0000CD9D0000C802002020
:1044D000D902002064030020014B18687047C046D1
:1044E00068030020014B18887047C0465A0300201B
:1044F00007B55023802100930348C900012280237F
:1045000002F08CFD07BDC046C802002013B52C4C3C
:104510002C49201C03F088FA00F0C4FB002801D0CD
:10452000294900E02949201C03F09CFA2849201C55
:1045300003F07AFA684600F0C3FB6946201C03F0DA
:10454000A5FA2449201C03F06FFA00F0B1FB002803
:1045500001D01D4900E01D49201C03F083FA1E49CB
:10456000201C03F061FA00F0B5FB002801D01649C9
:1045700000E01649201C03F075FA1849201C03F0CE
:1045800053FA00F0ADFB0A22011C201C03F0D1FA03
:104590001349201C03F048FA00F0A8FB0A22011C72
:1045A000201C03F0C6FA0F49201C03F03DFA00F06E
:1045B000A3FB0A22011C201C03F0BBFA13BDC0465A
:1045C000F8060020089E0000049E0000069E0000E1
:1045D000129E00001D9E00002D9E0000439E0000C4
:1045E000579E0000679E000010B50C4C0C49201C23
:1045F00003F01AFAFFF770FF0A22011C201C03F0D7
:10460000BAFA0849201C03F00FFAFFF76BFF1022DB
:10461000011C201C03F08DFA10BDC046F8060020D6
:104620007A9E0000AC9D000070B50026301C00F0A2
:10463000FFFA184C051C1849201C03F0F5F969789D
:104640002B7809021943AB78201C1B041943EB7823
:1046500001361B06194303F00FFA1049201C03F022
:10466000E3F969792B79090219430A22201C03F026
:1046700060FA0B49201C03F0D7F9A9790A22201C03
:1046800003F057FAF6B2201C03F0E4F9042ECDD162
:1046900070BDC046F8060020889E00008F9E000076
:1046A0009C9E0000452821D00BD8412818D004D862
:1046B0003038C0B2092820D91CE0432812D01BD9B9
:1046C00012E063280ED005D8612809D014D84628F6
:1046D0000ED00FE0652809D006D3662808D009E07F
:1046E0000A200AE00C2008E00D2006E00E2004E07D
:1046F0000F2002E0002000E00B20704707B50023E8
:1047000000930348191C1A1C03F036F907BDC04674
:104710006C03002010B50B4C1B21201C03F088FEFD
:10472000201C5B2103F084FE201C322103F080FE5C
:10473000201C4A2103F07CFE201C0D2103F078FE92
:1047400010BDC046F8060020F7B50190002901D041
:10475000FFF7E0FF019B124D9A00124B281CD15825
:1047600003F08AF900240C2363430093019B0E4F4E
:104770009E00F259009BD15C002910D0281C03F048
:104780005BF90A49281C03F04FF9F359009A281CD9
:104790009B185968013403F06FF9E4B2E3E7F7BD01
:1047A000F8060020600000204C00002011A100004D
:1047B00008B50121024B081C1970FFF7C5FF08BDA1
:1047C0007403002008B5034B022001211870FFF785
:1047D000BBFF08BD7403002008B5034B0320012173
:1047E0001870FFF7B1FF08BD7403002008B5034B34
:1047F000042001211870FFF7A7FF08BD74030020F3
:1048000008B500F07FFA034B01211878FFF79CFFF1
:1048100008BDC0467403002008B5FFF731FD034B07
:1048200001211878FFF790FF08BDC04674030020EF
:1048300008B500F009FA034B01211878FFF784FF4F
:1048400008BDC04674030020F8B5104E8500A85975
:1048500000230C245C43025D002A15D0914210D144
:10486000FFF758FF72590A4F13195968381C03F0A3
:1048700003F9381C03F0EEF873591C19A368984724
:1048800002E00133DBB2E4E7F8BDC0464C00002093
:10489000F806002008B5011C084B0D2801D1187836
:1048A00003E01B2805D1002018700121FFF74CFF01
:1048B00002E01878FFF7C8FF08BDC0467403002067
:1048C000F7B5071C01910024184E301C03F03EFD83
:1048D000002823D0301C03F007FEC5B20D2D03D1F4
:1048E00000233B55201C1FE01B2D1CD0082D0ED192
:1048F000002C13D0291C301C03F09AFD013C301C05
:10490000002103F095FDE4B200233B5506E0301C86
:10491000291C03F08DFD3D550134E4B2019B9C42FE
:10492000D2D3019800E00020FEBDC046F80600206A
:1049300030B5041C85B0002801D0012303706846FF
:104940000F21FFF7BDFF002807D0684604F0CCFF19
:10495000051C002C01D000232370281C05B030BD9D
:10496000F0B5234CA3B000236D46EB712149073508
:10497000201C03F059F8281CFFF7DAFF2D78002DD2
:1049800005D01D4B01211878FFF7DEFE2DE080B227
:1049900002AEC001311C8022FFF74CFD071CEBB2B8
:1049A000802D16D01A0702D1201C03F053F8735D36
:1049B0000F2B03D8201C302103F03EF8715D10222C
:1049C000201C03F0CAF8201C202103F035F8013523
:1049D000E5E7201C03F03EF80849201C03F024F80A
:1049E000201C391C102203F0BCF823B0F0BDC046D7
:1049F000F8060020D29D000074030020A89E00004D
:104A000037B5164C00236D461549201CEB7103F099
:104A10000BF800F041F90A22011C201C03F085F874
:104A20001049201C03F01EF8201C03F013F8073572
:104A30000D49201C02F0F8FF281CFFF779FF2B78A6
:104A4000002B05D0094B01211878FFF77DFE04E00B
:104A500080B200F01BF9FFF7D3FF37BDF806002046
:104A6000B19E0000BF9E0000C29E000074030020A3
:104A7000F0B52A4EE5B000236C462949301CE3739B
:104A800002F0D2FF2749301C02F0ECFF0F34264918
:104A9000301C02F0C9FF201CFFF74AFF2478019068
:104AA000351C002C0FD1301C02F0D4FF301C1F49E4
:104AB00002F0BAFF24AF8021381C4900FFF700FF45
:104AC000C6B2002E05D11A4B01211878FFF73CFE23
:104AD00022E0E3B25B08385D0093FFF7E3FD009A44
:104AE00004A98B5C01341B011818E3B28854B3424B
:104AF000EFD3019B720898B2C001FFF711FC041CB0
:104B0000281C02F0A7FF0B49281C02F08DFF281C6F
:104B1000211C102203F025F865B0F0BDF806002036
:104B2000CD9E0000149F0000D29D0000339F000026
:104B300074030020A89E000010B500F069F90C4C29
:104B40000C49201C02F070FF00F0C4F8002801D0CE
:104B5000094900E00949201C02F084FF201C03F0F1
:104B6000F5FB0028FAD0201C03F0BEFC10BDC046A7
:104B7000F80600202D9E0000049E0000069E000006
:104B800007B5002300930348191C1A1C02F0F4FE19
:104B900007BDC0467803002010B50E4C9621201C9E
:104BA000890103F0ABFA0C4802F0E8FB0B49201C2A
:104BB00002F062FFFFF7B8FAFFF7B8FA0849201CC5
:104BC00002F050FF00F0F2F8201C064902F04AFF04
:104BD00010BDC046F80600208813000050A0000059
:104BE0005CA0000066A0000010B5084C201C03F07B
:104BF000ADFB002805D0201C03F076FCC0B2FFF707
:104C000049FE00F0A9FA00F02DF810BDF8060020CA
:104C100000207047002070470020704708B5192019
:104C200002F02EFDA5235B005843000B80B208BDA7
:104C3000032804D80C235843024B181800E0002026
:104C40007047C0462801002038B5054C251C30357A
:104C5000A3689847A0800C34AC42F9D138BDC04657
:104C60002801002010B502F083FB064C2368C01A0F
:104C7000054B1B88984204D9FFF7E6FF02F078FB4A
:104C8000206010BD8003002058010020014B1880D7
:104C90007047C04658010020014B18887047C04635
:104CA00058010020014B18787047C046940300203B
:104CB00008B5024801F06FF808BDC046A403002003
:104CC00010B50349041C01F027F8201C10BDC04694
:104CD00064040020014B18787047C04695030020FB
:104CE000014B18887047C04696030020014B188876
:104CF0007047C046A0030020014B18887047C0468B
:104D0000B8030020034A00231380034A1380034A98
:104D10001380704796030020B8030020A0030020F2
:104D200000231A1CC15C01335218D2B27F2BF9D177
:104D3000101C704708B50248024902F09DFE08BDEC
:104D4000F806002083A1000008B50248024902F0DD
:104D500093FE08BDF806002056A1000008B50248E1
:104D6000024902F089FE08BDF8060020A0A000005C
:104D700013B50024221C211C231C0094084802F0B7
:104D8000FBFD201CFFF7C6F941790379090219439D
:104D9000044801F07DF9044801F088F813BDC046CD
:104DA0009803002088030020A403002037B5104D8D
:104DB0001049281C00F054FF0F4801F047F90F4C30
:104DC0000F49201C02F034FE291C684600F0A4FFA5
:104DD0006946201C02F05AFEFFF794FF094A01239E
:104DE0001370094A0948137001F0D0F837BDC04666
:104DF000640400205A01002088030020F8060020E7
:104E0000CBA000009403002095030020A403002001
:104E100008B5064B1A78002A02D101221A7004E064
:104E2000002203481A7001F0B1F808BD9503002074
:104E3000A403002038B50D4C552523780133DBB28F
:104E400023700B4CE070201D6370A270257004F07D
:104E50009AFD201CFFF764FF231C7F331870211C70
:104E60008022044800F0A7FF38BDC0463B04002064
:104E7000BB030020A4030020F0B517499FB0041C19
:104E8000164802F0F9FD607801AD2870FFF7D0FEFA
:104E9000041E18D003784078A778E67800021843FB
:104EA0003F0436063843304304F070FE6870617882
:104EB0002378090219430F436846311C39430630F1
:104EC00004F05CFE00E068700520291C7422FFF7E6
:104ED000B1FF1FB0F0BDC04642A10000F80600209F
:104EE00013B5041C0F49104802F0C6FD607801ACF0
:104EF0002070FFF79DFE002809D0437902791B023C
:104F0000134363701B0AA3708379E37004E00123E9
:104F10005B426370A370E0700620211C0422FFF73F
:104F200089FF13BD6DA10000F8060020F7B5334ED0
:104F3000051C3349301C6C1C02F09EFD3149301CAD
:104F400002F072FD61786B7809021943A378102290
:104F50001B041943E378301C1B06194302F0F3FDD0
:104F60002949301C02F060FD21791022301C02F02A
:104F7000F8FDE37822796F786078A1789C46002A62
:104F800009D0000207430804074318063843A91D47
:104F9000FFF7C6F914E06B46000207431A710804D4
:104FA0006346074318063843102802D1FFF7FAF882
:104FB00008E0202802D1FFF703F903E0FFF760F9CA
:104FC0006B46187163786A781B021343A278301C11
:104FD00012041343E2780D4912061343009302F0C2
:104FE00023FD6B461979301C102202F0BAFD012016
:104FF00069460522FFF71EFFF7BDC046F8060020F0
:10500000B9A00000DEA00000E6A00000EDA00000B6
:1050100038B5041C0078013808281ED804F0AAFB13
:10502000051D2B2B090D11151900201CFFF77EFF04
:1050300021E0201CFFF720FF1DE0201CFFF750FFA0
:1050400019E0201CFFF776FE15E0201CFFF77CFE20
:1050500011E0201CFFF782FE0DE0074B074D1A8878
:1050600007490132281C1A8002F0E2FC2178281C32
:105070000A2202F076FD38BDB8030020F8060020B1
:10508000F3A00000F8B52D4D041C2878042854D84E
:1050900004F070FB030E16203000552C4DD1284B28
:1050A000284A1C7000217F331C701170012343E0DB
:1050B000234B5C707F331A78A4181C7002233BE0EA
:1050C0001F4B9C707F331A78A2181A700323002C90
:1050D00032D10DE01B4A1A491378C818C4707F31C9
:1050E000087801332418DBB20C7013707B2B24D9A1
:1050F000042321E01248071C7F373B78A34203D1E9
:105100000330FFF785FF16E00F4B104E1A88104949
:105110000132301C1A8002F08BFC1022211C301C42
:1051200002F01BFD0B49301C02F082FC3978301C68
:105130000A2202F016FD00232B70F8BDBA030020EE
:10514000BB03002084030020A0030020F8060020F9
:10515000FCA000000EA1000030B5224C87B0201C3E
:1051600000F019FE251C204B002802D11A78002AD5
:105170001BD11B78002B32D0281C00F035FF0028F3
:105180000BD0281C00F02CFE002828D0281C00F092
:1051900033FEC0B2FFF776FF21E01449144802F055
:1051A0006BFC281C00F0F2FE19E001AD281C11492F
:1051B00000F0D2FF029B201C6360AB68A360EB6829
:1051C000E3602B7C237400F0E6FD002807D00A4B37
:1051D00007481A88094901321A8002F04DFC07B0CD
:1051E00030BDC046A4030020950300201FA100008D
:1051F000F8060020880300209603002014A1000078
:1052000008B50E300021142204F0C6FB08BD10B50D
:105210000E31041C02F0BEFB201C10BD10B51C3169
:10522000041C02F0B7FB201C10BD10B52031041C7B
:1052300002F0B0FB201C10BD10B52831041C02F098
:10524000A9FB201C10BD406970478069704730235E
:10525000481C0B7013091901521AD2B20138092ADD
:1052600001D8303200E03732D2B24270002B01D088
:105270001A1CEFE77047000007B5002300930348AE
:10528000191C1A1C02F078FB07BDC0463C04002024
:10529000F0B593B00AAD061C0591049200212022BE
:1052A000281C04F079FBFF23191C1A1C009306A884
:1052B00002F062FB5C4B321C54320893079B039252
:1052C000101C08A94322099300F0CAFF013000D145
:1052D000A7E0726801232B706B7013BA049A002741
:1052E0000624EF70AC700B93130A2B726A72802342
:1052F0006A465386291C1C22039800F0BEFF391C05
:105300002022281C04F048FB331C0833191C221CE3
:10531000281C049304F037FB291C1022039800F08A
:10532000ACFF391C281C202204F036FB271C0AACD9
:105330000398211C2022013F00F09FFF002FF6D18F
:10534000822262705322A270059A6323A2713D22C9
:105350002370E370E27135230722684623712272BD
:1053600001230622049932306371637204F00BFB4F
:1053700068460C272D493A302774677404F0FEFB09
:10538000F27A301C10A9FFF762FF6946327B301CAD
:105390004231FFF75CFF727B301C11A9FFF757FF0A
:1053A0000398211C1E2200F068FF059B032B1FD1D0
:1053B0003223237004236370B27B0398A270F27BC4
:1053C000211CE270327C2271727CE37162713622A0
:1053D000A271731DDB7F3A1C2372B31DDB7F6372E6
:1053E000F31DDB7F0836A372F37FE37200F045FF05
:1053F00037232B7006236B702B710F2301226B71E7
:105400003A23AA70AB7103223B23EA70EB71039835
:10541000FF23291C09222B7200F02FFF039800F0B4
:1054200027FF13B0F0BDC04610A700009BA10000ED
:10543000F0B58FB0051C0191171C01F099FF061CF7
:105440002C1C5434201C00F061FF002809DC01F002
:105450008FFF019A801B90423AD8322001F08EFFD4
:10546000EEE705AE2422201C311C00F029FF337822
:1054700000220192022B26D1A38B432B23D17668E5
:10548000291C36BA3E600CA80831062204F06CFADA
:1054900000281FD12B689E421CD36A68964219D8F7
:1054A000281C0E3009A9042204F06DFACC26201C19
:1054B000013E00F0EFFE002EF9D10196201C00F015
:1054C000A5FE00280BDC201C00F0ACFE0198DDE0FE
:1054D000FF20DBE0201C00F0A5FE0020D6E0201C11
:1054E00000F0D8FE0F2874D024DC032848D00BDC51
:1054F0000028E3D0012800D0BAE0201C00F0CAFE4A
:10550000291C201C1C3181E006284DD00C2800D01D
:10551000AEE0201C00F0BEFEC6B2701C04F010FA13
:105520006B6DA861011C9B6B321C201C98470023EB
:10553000AA695EE036285ED00EDC332800D189E00F
:10554000352800D094E0201C00F0A4FE201C00F0C0
:10555000A1FEC0B20190B1E73B286ED0FF28ADD0CC
:105560003A2800D084E0201C00F094FE291C04227C
:10557000201C303100F0A4FE2A6B13BA2B639DE788
:10558000201C00F087FE291C071C2031201C04224F
:1055900000F096FE0026FBB2043B9E428EDA201CF1
:1055A00000F078FE0136F6E7201C00F073FE291C9F
:1055B000071C2831201C042200F082FE0026FBB2CA
:1055C000043B9E4200DB79E7201C00F063FE0136BD
:1055D000F5E7201C00F05EFEC6B2701C04F0B0F9C6
:1055E0006B6D6861011C9B6B321C201C98476A69BB
:1055F0000023935562E7201C00F04CFE6B6A2E1CC2
:10560000071C2436002B05D1201C311C042200F07D
:1056100057FE53E703A8311C02F0BCF9049AEB6E65
:105620009A42F1D0FFB20026F3B29F4200D145E783
:10563000201C00F02FFE0136F6E7201C00F02AFEA9
:10564000291C0422201C343100F03AFE6A6B13BA84
:105650006B6333E7201C00F01DFE291C0422201C74
:105660002C3100F02DFEEA6A13BAEB62AB6325E73A
:10567000201C00F00FFE0026C7B2F3B29F4200D1FB
:105680001CE7201C00F006FE0136F6E70FB0F0BD67
:10569000F0B5FA2185B0041CC900012002F054FFC6
:1056A000221C543260602060101C019200F0C6FD84
:1056B0000198442100F052FE0025A84200D188E064
:1056C00001F056FE0095071C261C50363378032B3C
:1056D00078D0002B10D163680133636001F048FE7D
:1056E000FA218900C01B04F04FF8012182B2201C6E
:1056F000FFF7CEFD012311E0042B11D163680133C4
:10570000636001F035FEFA218900C01B04F03CF80B
:10571000032182B2201CFFF7BBFD0223337042E05D
:10572000012B17D1201CA16C03AAFFF781FE051ED7
:10573000022D38D1039B636001F01AFEFA21890023
:10574000C01B04F021F8032182B2201CFFF7A0FD4A
:1057500035702EE0022B26D1201CA16C03AAFFF786
:1057600067FE051E052D19D1E26A03233370002A56
:1057700002D1E1239B00E362236B002B02D1E26A9A
:1057800053082363626B236B002A01D15A006263C2
:10579000A363636B0122E363009295E7062802D1BD
:1057A0000023337005E0FF2D03D1231C0025503367
:1057B0001D70009B012B87D001F0DAFD626CC01BCD
:1057C000904281D9019800F039FD6368009D013352
:1057D0006360281C05B0F0BDF7B5071C002508372D
:1057E0000626041C8364C562056345630564019154
:1057F0004264291C321C381C04F0CEF8201CFFF730
:10580000FFFC321C381C019904F0BDF8231C5033F6
:105810001D70201CFFF73CFFFEBD4968002341605E
:105820000381704730B5081C0378002B01D001308C
:10583000FAE71C1C0878002810D0032C16DC2E2850
:1058400006D1FF2B12DC101903710134002303E091
:105850000A256B4330381B180131EBE7FF2B06DCC0
:10586000032C04DC14192371012000E0002030BD5A
:1058700007B5002300930348191C1A1C02F07CF89A
:1058800007BDC04644040020F0B585B0041C0F1CC1
:1058900001F06EFD251C0C352081211C6C460E3458
:1058A00008310222281C00F0E8FC0123211C0222FE
:1058B000281C238000F0E1FC80235B00211C0222D5
:1058C000281C238000F0D9FC0023211C0222281C64
:1058D000238000F0D2FC211C0222281C00F0CDFC09
:1058E000281C211C022200F0C8FC3E1C3378002B2F
:1058F0001DD03E1C3378721C0192002B11D1F31B7A
:105900000093002B11DD009A69460D310A70281CA6
:10591000012200F0B2FC281C391C009A00F0ADFCFA
:1059200003E02E2BEBD0019EE4E7019FDEE7694602
:105930000D31281C012280260B70760000F09DFCA2
:10594000211C281C0222268000F097FC281C211C08
:105950000222268000F091FC012005B0F0BD00007D
:10596000F0B589B0051C0F1C019201F001FD061C69
:105970002C1C0C34201C00F0C9FC002808DC01F0B1
:10598000F7FC801BB8420BD8322001F0F7FCEFE7A0
:1059900069686A6A914205D12B8D352B02D103E0EB
:1059A0007048DDE07048DBE0201C00F02FFC0B2885
:1059B00000DCD4E005AF391C0C22201C00F080FC78
:1059C0006B4616331B886A465BBAD38129893A88AD
:1059D0009EB2914202D11BB2002B04DB201C00F0CE
:1059E00021FC6248BCE0624B1E4004D0201C00F049
:1059F00019FC6048B4E06B461A331B885BBA9BB253
:105A00000093002B1FD1201C00F00CFC5A48A7E08B
:105A10006D461235201C291C012200F051FC2B7808
:105A2000002B19D12B78002BF2D1201C00F032FC76
:105A3000201C00F02FFC201C00F02CFC201C00F08F
:105A400029FC0136B6B206AB1B881A06120C1B0ADB
:105A500013439E42DCDB08E02B785A1E2A70002B91
:105A6000E0D0201C00F016FCF6E700256E460D364F
:105A7000311C0122201C00F023FC33783F22191C2A
:105A800091430AD1002B0DD033785A1E3270002B6F
:105A900008D0201C00F0FEFBF6E7201C00F0FAFB0B
:105AA000002333703378002BE0D104AF391C02227D
:105AB000201C00F005FC694612310222201C00F077
:105AC000FFFB201C00F0E6FB201C00F0E3FB6E4611
:105AD000201C00F0DFFB0E36201C00F0DBFB022256
:105AE000201C311C00F0ECFB3B881A06120C1B0A30
:105AF0001343012B07D16A46538A1F063F0C1B0A2A
:105B00001F43012F01D0002712E033881A06120C20
:105B10001B0A1A43042A04D0201C00F083FB1748F8
:105B20001EE00199201C043100F0CAFB381C17E06C
:105B300033881A06120C1B0A13439F4205DA201CF5
:105B4000013700F0A7FBBFB2F2E70135009BADB211
:105B50009D428BD1201C00F065FB094800E00948FC
:105B600009B0F0BDFFFF0000FEFF0000FCFF0000D9
:105B70000F020000FBFF0000FAFF0000F7FF00002B
:105B8000F6FF0000FDFF0000F0B585B0041C0F1CFF
:105B90000192FFF747FE051E35D11E4B62685B6818
:105BA0009A4232D001F0E4FB0F23011C1940261C5D
:105BB00080230C36DB00C918301C00F0CFFB012815
:105BC00025D16268144B0392301C02A9352202933E
:105BD00000F046FB002801D1002510E0201C391CF4
:105BE000FFF752FE0028F7D0301C00F041FB0028E0
:105BF000F2D0201C0949019AFFF7B2FE051C301CA7
:105C000000F01CFB03E0012501E002256D42281C89
:105C100005B0F0BD4404002010A700008813000068
:105C200008B50421021C0B1C012000F0F7FD08BD83
:105C300008B50421021C0B1C052000F0EFFD08BD77
:105C400008B5021C04210920062300F0E7FD08BD69
:105C500008B50421021C0B1C0F2000F0DFFD08BD5D
:105C60007FB5041C00690E1C002801D002F09CFCCA
:105C7000782002F095FC7822051C002103F08CFEB0
:105C8000281C543000F090FB217D25611F4800F056
:105C90001DFE301CFFF7D4FF0023191C1A1C0093B3
:105CA00002A801F069FE03A8FFF7D2FF2069311CAA
:105CB000174A184BFFF790FD051E012D22D12169CF
:105CC00002A8FFF7A4FA03A8FFF7C2FF216902A800
:105CD000FFF7ABFA03A8FFF7A3FF216902A8FFF7BC
:105CE0009DFA03A8FFF7A4FF216902A8FFF7A4FA11
:105CF000039B20696360FFF7A6FAA0602069FFF7A5
:105D0000A4FAE060281C04B070BDC046A8040020BE
:105D100060EA00008813000010B5041C01F024FEA6
:105D2000221D002104230F2000F06CFE201C10BD5A
:105D3000024B4968036041607047C04610A70000ED
:105D400037B50024231C211C221C0094054801F0B7
:105D500013FE054D281C01F007FE0A232C612B754C
:105D600037BDC0464C04002064040020002070476A
:105D7000704708B503685B6B984701235840C0B271
:105D800008BD13B502686B46D97107335468191CF6
:105D90000122A04716BD007C0838431E9841C0B2BE
:105DA0007047027C0B7C0020934203D1083B581EB5
:105DB0008341D8B2704738B5041C007C151C0828F4
:105DC00003D101236360002208E092B200F00CFCD2
:105DD0002A1C002802D101236360021C101C38BD5C
:105DE00008B5017C0020082902D0024800F0CAFD55
:105DF00008BDC046A804002013B56C460734007CDB
:105E0000211C012200F030FC002801DD207801E097
:105E10000120404216BD08B512B2007C00F024FCFF
:105E200008BD036813B51B69041C9847002807D0F8
:105E3000207C6C460734211C00F04AFC207801E0ED
:105E40000120404216BD08B5007C00F04FFC08BDA3
:105E500070B590B0041C04A8151C0E1C01F084FD44
:105E600007A800F0A1FA684601F07EFD02A80D49DE
:105E7000FFF75EFF04A802A9FFF7CFFC04A8311CBE
:105E80006A46FFF781FE012809D1074A2368201CD2
:105E9000DB690292019A02A903922A1C984710B06A
:105EA00070BDC0466404002010A7000000234360BA
:105EB000FA239B008360034B0833036008230374B9
:105EC0007047C046A8A1000000234360FA239B004E
:105ED0008360024B0174083303607047A8A100007F
:105EE00008B5017C0020082905D049010831C9B254
:105EF000032000F0C3FC08BDF7B50191037C041C2E
:105F0000171C0020082B3DD1051CEEB27101083191
:105F1000C9B2032000F0B2FC002801D1267406E0CB
:105F2000FB2318401828F9D00135082DEDD1207C2D
:105F3000082826D0144B1A88013292B2002A01D1C7
:105F40008022D2001A801A880121002300F0D6FA9C
:105F50000199207C04313A1C00F00CFB002802D18E
:105F6000082323740EE0201CFFF7BAFF172806D081
:105F7000012001F003FA201CFFF7B2FFEEE7012039
:105F800000E00020FEBDC0466001002038B5041CC2
:105F9000007C082823D000F01DFB01F0E9F9051C66
:105FA000201CFFF79DFF002805D001F0E1F90C4B04
:105FB000401B98420FD9201CFFF792FF002802D007
:105FC000207C00F08DFA227C064B52000021D15239
:105FD0000823237403E0012001F0D0F9E0E738BD85
:105FE000E70300005404002038B5037C051C00249E
:105FF000082B12D0FFF774FF14280ED0A0420CD04B
:1060000018280AD001241C2807D12B68281C1B69DA
:106010009847041C601E8441E4B2201C38BD000077
:1060200007B5002300930348191C1A1C01F0A4FCB7
:1060300007BDC0467C04002013B502686B46D971C9
:1060400007335468191C0122A04716BD70B5061C01
:1060500086B00024E5B2291C01A8FFF735FF01A88E
:10606000FFF73EFF031E0CD132890121281C00F0EE
:1060700045FA281C00F06CFA3289044B6400E252A5
:1060800002E00134082CE5D106B070BD54040020B4
:1060900000234360024B0181083303607047C04610
:1060A000F0A1000070B5002486B0051C261CE1B2EA
:1060B00001A8FFF709FF134A6300D25A2B899A42BD
:1060C00010D101A8FFF70CFF14280AD001A8FFF790
:1060D00007FF1C2806D101A8FFF782FE00280BD07D
:1060E00000E001260134082CE1D1002E08D12B68F4
:1060F000281C1B69984703E001A8FFF747FFF1E759
:1061000006B070BD54040020F0B589B0061C0F1C09
:106110000192FFF7C7FF0024251CE1B203A8FFF797
:10612000D3FE0C4A6300D25A33899A4204D103A8A1
:10613000FFF7D6FE172805D00134082CEDD1281C16
:1061400009B0F0BD03A8391C019AFFF734FE2D18E1
:10615000F2E7C04654040020F0B5051C87B0081CC7
:106160000F1CFFF79FFF002601ACF1B2201CFFF7C8
:10617000ABFE154A7300D25A3B899A4209D1201CC2
:10618000FFF7AEFE17280CD0201CFFF7A9FE1C2835
:1061900007D00136082EE7D1281C311CFFF794FEEA
:1061A0000EE0201CFFF71CFE0028F2D063686B6035
:1061B000A368AB60E368EB60044B2B60237C2B741B
:1061C000281C07B0F0BDC04654040020B0A1000058
:1061D00007B5002300930348191C1A1C01F0CCFBDF
:1061E00007BDC046840400200020704708B503683E
:1061F0009B6B984708BD0000024B896903604160B2
:106200007047C04610A70000808B7047008C704715
:1062100013B502686B46D97107335468191C012203
:10622000A04716BD10B5041C238C002B04D0236896
:10623000201C5B699847F7E710BD000010B5041CEF
:10624000007C082808D000F04BF9227C034B520058
:106250000021D1520823237410BDC04654040020ED
:1062600008B50023C3830431007C00F05FFA08BD49
:1062700008B5007C00F076FA08BD38B5041C0D1C8A
:1062800093B2E18B2A1C007C00F032FAE38BC31836
:10629000E38338BD37B5038C041C002B08D06D4652
:1062A0000735007C291C012200F0DEF9002802DC01
:1062B0000120404203E0238C2878013B23843EBD2B
:1062C00010B5038C041C002B02D1012040420CE0CD
:1062D000007C934201D81AB200E012B200F0C4F977
:1062E0000028F2DD238C1B1A238410BD13B5038C08
:1062F000002B07D06C460734007C211C00F0E8F925
:10630000207801E00120404216BD0000036813B56B
:10631000DB68041C9847217C0F4800F033FB031C0A
:106320000020834217D0207C6946082200F09CF9A7
:10633000002810DD201C6946143001F037FB694647
:106340000B794A791B02D318A3838879CB79000291
:10635000181880B2208416BDA8040020F8B5027C6D
:10636000041C0E1C0023082A1BD11D1CEFB279014E
:106370000831C9B2032000F081FA002801D1277446
:1063800004E01828FBD00135082DEFD1207C002334
:10639000082806D0238466820221321C00F0AEF861
:1063A0000123181CF8BD0000002310B54360FA2338
:1063B0009B008360054B041C0833036008230374AF
:1063C000143001F0D1FA201C10BDC04610A200000C
:1063D00070B590B0041C04A8151C0E1C01F0C4FA82
:1063E00007A8FFF7E1FF684601F0BEFA02A80D49D1
:1063F000FFF79EFC04A802A9FFF70FFA04A8311CBE
:106400006A46FFF7C1FB012809D1074A2368201C0F
:106410009B6A0292019A02A903922A1C984710B023
:1064200070BDC0466404002010A7000007B500231B
:1064300000930348191C1A1C01F09EFA07BDC046C0
:106440008C04002007B5002300930348191C1A1C74
:1064500001F092FA07BDC0469404002008B50A1C5A
:1064600041010C31C9B20C20042300F0D7F908BD5A
:1064700008B50B1C41010831C9B2181C00F0FEF927
:1064800008BD08B50221FFF7F3FF08BD08B50B1CD6
:1064900041010C31C9B2181C00F098F908BD38B59B
:1064A0000A0A0D1C041C0421FFF7F0FFEAB2201CAD
:1064B0000521FFF7EBFF38BD08B50A1C0221FFF7E5
:1064C000E5FF08BD38B50A0A0D1C041C1021FFF7B2
:1064D000DDFFEAB2201C1121FFF7D8FF38BD000014
:1064E00010B5041C211C1022034800F0F8FA201CEF
:1064F000FF21FFF7E1FF10BDA8040020F7B50193CD
:106500004B1E041C0E1C171C0025042B1AD8FFF769
:10651000E7FF019A201C3243291CFFF7B7FFAF4267
:1065200002D0201C391C05E0074B201C19880131C2
:1065300089B21980FFF7B3FF0448211C012200F043
:10654000CEFA0125281CFEBD9C040020A8040020D2
:1065500010B50321041CFFF78BFF0023132805D17E
:106560000348211C022200F0BAFA0123181C10BDB6
:10657000A804002068B5161C0A78051CFF2A09D15A
:106580004A78FF2A11D18A78FF2A0ED1CA78FF2AC9
:106590000BD11BE0002A08D14A78002A05D18A785D
:1065A000002A02D1C878002811D0002086420ED0DF
:1065B000281CFFF753FF281C311CFFF783FF0448FA
:1065C000291C042200F08BFA012000E0002068BDA5
:1065D000A804002008B5011C0822024800F07FFA38
:1065E00008BDC046A8040020F7B58023041C019113
:1065F000151C1B019A4200D91D1CADB2194E211C5D
:10660000301C00F0A1F90321071C201CFFF730FF0C
:10661000172801D01C2802D1AF42EFD300E000259B
:10662000301C211C019A2B1C00F0E4F9301C211CA9
:10663000202200F054FA201CFFF723FF102108420B
:106640000AD1201C0321FFF713FF061EF3D1201CE3
:10665000FFF746FF301C03E0201CFFF72DFF281C2E
:10666000FEBDC046A8040020F0B5184E85B0051C3C
:106670000391301C291C171C00F084F904B2002C73
:106680000CD1281C0321FFF7F3FE14281AD0002890
:1066900018D01C38441EA041444213E0231CBC42C5
:1066A00000DD3B1C1CB2002C0CDD00220092301CD3
:1066B000291C039A9BB200F0E5F9301C291C4022EA
:1066C00000F00DFA201C05B0F0BDC046A804002063
:1066D00013B5031C01240A1C0094191C0248231C36
:1066E00000F0D0F9201C16BDA8040020704700005F
:1066F000F0B50D4E051C85B00F1C301C291C1C1C50
:10670000039200F021F9844204D9301C291C00F0C6
:106710001BF9041C301C0094291C3A1C039B00F03C
:1067200041F9201C05B0F0BDA804002038B50B7855
:10673000051C141C002B09D14B78002B06D18B783B
:10674000002B03D1CA78181C002A0AD000208442EA
:1067500007D0281CFFF782FE281C211CFFF7B2FE81
:10676000012038BD38B5041C211C0D48202200F042
:10677000B6F9201CFFF785FE1021051C0D40201CDA
:10678000002D09D1FFF77DFE0307F2D5201C18214B
:10679000FFF792FE281C02E0FFF78EFE012038BDB5
:1067A000A804002008B5034B0021187801F02CF84C
:1067B00008BDC046A904002008B5034B0121187884
:1067C00001F022F808BDC046A9040020F8B5114C1C
:1067D000114B051C0F1C161C201C06CB00F0E4F905
:1067E000FFF7E0FF290A201C00F00CFAE9B2201C98
:1067F00000F008FA391C201C00F004FA311C201C9F
:1068000000F000FAFFF7D8FF201C00F0E9F90120A2
:10681000F8BDC046B4040020A0040020F7B5154C14
:106820001F1C154B061C0191201C151C06CB00F0EB
:10683000BBF9FFF7B7FF310A201C00F0E3F9F1B212
:10684000201C00F0DFF9201C019900F0DBF92E1C60
:10685000731B9BB2BB4205D23178201C00F0D2F9E9
:106860000136F5E7FFF7A8FF201C00F0B9F9381C46
:10687000FEBDC046B4040020A004002070B5114B3A
:10688000114C051C0E1C201C06CB00F08DF9FFF7E7
:1068900089FF290A201C00F0B5F9E9B2201C00F09C
:1068A000B1F9311C201C00F0ADF90021201C00F0D2
:1068B000A9F9051CFFF780FF201C00F091F9281CA6
:1068C00070BDC046A0040020B404002038B5FA20F2
:1068D000144C8000217000F051FD2078012100F05F
:1068E00039FF114800F038F90020011CFFF7C6FFFE
:1068F000802252420243D2B200200421FFF766FFF9
:10690000002465010C35EDB2291C02221E20FFF780
:106910005DFF01341F20291C0222FFF757FF082CBE
:10692000EFD138BDA9040020B404002038B52021DF
:10693000041CFFF79DFD21210502201CFFF798FD97
:10694000ADB2281880B238BD70B50E1C0024301CC2
:10695000FFF7ECFF051E03D0301CFFF7E7FF041C18
:10696000AC42F4D1201C70BD38B52621041CFFF7C1
:106970007FFD27210502201CFFF77AFDADB2281804
:1069800080B238BD70B50E1C0024301CFFF7ECFF40
:10699000051E03D0301CFFF7E7FF041CAC42F4D106
:1069A000201C70BDF7B50C1C0193081C08AB2421FA
:1069B000171C1D88FFF75CFD2521061C201CFFF716
:1069C00057FD3602C719BE19B6B261012B1C14312E
:1069D0007519ADB2301C019AC9B2FFF71FFF2A0A20
:1069E000201C2421FFF752FDEAB2201C2521FFF7CD
:1069F0004DFDF7BD13B5141C00930022231CFFF7B7
:106A0000D1FF13BDF7B5154C1F1C154B061C01918A
:106A1000201C151C06CB00F0C7F8FFF7C3FE310A97
:106A2000201C00F0EFF8F1B2201C00F0EBF8201C65
:106A3000019900F0E7F82E1C731B9BB2BB4206D2F3
:106A4000201C002100F0DEF830700136F4E7FFF77B
:106A5000B3FE201C00F0C4F8381CFEBDB4040020B6
:106A6000A004002013B5141C6846C48006300088BA
:106A700049011A1C183104AB1B88C9B280B2FFF758
:106A8000C1FF13BDF0B585B01D1C0AAB1B780C1CF3
:106A9000071C081C282102920393FFF7E9FC292117
:106AA000061C201CFFF7E4FC36028619B6B2029BD6
:106AB0000095381C211C321CFFF7D4FF039B002BD0
:106AC0000BD17519ADB22A0A2821201CFFF7DEFC74
:106AD000EAB2201C2921FFF7D9FC05B0F0BD10B5A2
:106AE000081C0C1C0121FFF7D1FC201C0121FFF721
:106AF000BFFC0028F9D110BD034B044A1A600022E4
:106B00005A711A717047C046A004002000127A0022
:106B1000437A002B04D18372C372C3600123437292
:106B2000704730B585B0041C02AD00680291039235
:106B300001F022F96B79E179227A00932068002331
:106B400001F08CFA29792068029A01F0E5F82068B2
:106B500001F008F905B030BD70B5041C1826FFF728
:106B6000D7FF2079331C43430D4D0821EB185956AC
:106B700000F07AFEA079331C43430821EB185956E4
:106B800000F072FE607908214643AD19695600F0A5
:106B90006BFE044B201C06CBFFF7C3FF70BDC04645
:106BA00088A20000AC04002007B5837A009101920E
:106BB000002B0DD09A0706D5EFF310835A425341AC
:106BC000C37272B604E0DA0702D58289034B9A6079
:106BD0000099019AFFF7A5FF07BDC04600180040C5
:106BE000837A002B0BD09A0704D5C37A002B06D0EA
:106BF00062B604E0DA0702D58289014BDA60704799
:106C00000018004008B5006801F0BFF808BD00009A
:106C1000094B0A4A0A491A6000225A711A71094B33
:106C200019601221197114219971152159710121CD
:106C30005A72D9711A727047AC04002000093D00E5
:106C400080080020B4040020F8B5051C0F1C161C99
:106C50000024B44208D02B68395D1B68281C984773
:106C6000002801D00134F4E7201CF8BD7047031C54
:106C7000FC33196ADA69914203D01B6AC018007E9E
:106C800001E0012040427047031CFC33D8691B6AB5
:106C9000C01A01D50130FF3070470000F7B50193ED
:106CA000FA239B008360134B80260025760008336F
:106CB000041C0F1C4560291C00920360321C183014
:106CC00002F06AFE231C9022FC335200DD61A01802
:106CD0001D62321C291C02F05FFE87229200A3185D
:106CE0005D60019A9D60009B2761A575201C23753E
:106CF0006275FEBD60A2000070B50D49041C0069FC
:106D000001F0D0F9206901F05BF81826207D331CD2
:106D10004343084D0821EB18595600F0A5FD607D4E
:106D200008214643AD19695600F09EFD70BDC0466E
:106D3000A086010088A2000038B5041C0D1C006963
:106D400001F052F8291C206901F0ACF9206901F02A
:106D500037F838BD8A2387229B009200C1548318DC
:106D600000225A609A60012383757047031CFC332C
:106D70005A6810B501329C68D2B2A24202D05C6857
:106D800001555A6010BDF7B501930023041C151C72
:106D9000181C9A4231D0221CFC32D3612069136244
:106DA000012201F053F8002825D0206901F0BDF838
:106DB000271C1837011C381CFFF7D8FF0126206953
:106DC000AE420ED001F022F80221206901F028F82D
:106DD000206901F0AAF8011C381CFFF7C7FF013633
:106DE000EDE701F00BF8019B002B05D02069032192
:106DF00001F016F800E0051CE8B2FEBD08B501235D
:106E0000FFF7C1FF08BD10B5827D00239A420DD067
:106E10008724A4000219546892680134E4B29442B1
:106E200004D02130FF30FFF7A1FF0123181C10BD53
:106E3000031CFC3399685A68914206D09A68805CBA
:106E40009A680132D2B29A6001E001204042704754
:106E500070B500228A2382759B00041C0E1CC15C45
:106E6000006900F0F3FF002805D12069032100F03C
:106E7000D7FF022523E090235B00E01887239B00C7
:106E8000E21851689368CB1A01D50133FF33002B08
:106E90000ED02569FFF7CCFFC1B2281C01F005F820
:106EA0000028E8D12069032100F0BAFF032506E09D
:106EB0001D1C002E03D02069032100F0B1FF281C07
:106EC00070BD08B50121FFF7C3FF08BD08B5183034
:106ED000FFF7AEFF08BD38B5041C006901F003F8E8
:106EE000002800D184E0206901F00BF800280ED1C1
:106EF000206901F010F800281FD0206901F006F881
:106F000000281AD0206901F00BF8002815D120695B
:106F100000F07CFF2069032100F082FF8C239B009E
:106F2000E558002D04D02368201C1B699847A8470A
:106F3000FC340023E36123625AE0206900F0EBFF98
:106F4000031C2069002B19D000F060FF2069032189
:106F500000F066FF206900F0E3FF002848D0872298
:106F60009200A31800225A609A600123A3758B2314
:106F70009B00E35893423BD0984739E000F0BCFFB8
:106F8000002835D0206900F0CBFF002816D08723D9
:106F90009B00E21851689368CB1A01D50133FF3387
:106FA000FF21002B05D090225200A018FFF740FFD0
:106FB000C1B2206900F08AFFA07519E0231CFC33E0
:106FC000DA691B6A0132D2B220699A4202D100F01A
:106FD00015FF09E000F0A9FF011C201C1830FFF785
:106FE000C5FE206900F012FF2069032100F018FFA0
:106FF00038BD000008B50248FFF76DFF08BDC04668
:10700000C404002008B50348034910221123FFF7E8
:1070100045FE08BDC40400207008002010B50272AF
:107020004A4302AC92022478D208438102611023C1
:10703000002204718B4252410224A21AC180C281F3
:10704000994201D8082302E0074A914201D903730B
:1070500009E00C2389090373002904D0037B490844
:1070600001330373F8E710BDFF01000038B5041CBD
:1070700002600D1C101CFFF73FFE2068291CFFF763
:107080005BFE21792068FFF765FEE389022B04D1BE
:107090002068002103681B68984720680021036866
:1070A0001B6898472068FFF70CFF38BDF0B5041C3B
:1070B00085B0029222691D1CCB180E1C0920934238
:1070C0005ED8002D5BD063895F1E3740DF1BBFB2E7
:1070D000AF4200D92F1CE3892022D31A9F4200DD42
:1070E0001F1C237B321CDA40131C227920681343B7
:1070F000DBB2191C0393FFF72DFEE389022B05D1A8
:107100002068310A0368C9B21B6898472068F1B249
:107110000368BFB21B68984720680197036802990B
:107120005B683A1C98472068FFF7CBFE002827D100
:107130006427FA235B01013BFDD120680399FFF727
:1071400009FEE389022B04D12068002103681B6833
:1071500098472068002103681B6898472068FFF75C
:10716000B0FE002804D0013FFFB2002FE1D107E0BC
:10717000019B029AF618D2180292ED1AA1E7281C78
:1071800005B0F0BDF0B5041C85B0039222691D1C4A
:10719000CB180E1C092093424AD8002D47D0628993
:1071A000531E3340D31A9BB2AB4200D92B1C9BB267
:1071B0001A1C202B00D92022237B92B20192321C70
:1071C000DA40131C227920681343DBB2191C0293A6
:1071D000FFF7C0FDE389022B05D12068310A03685F
:1071E000C9B21B6898472068F1B203681B689847CA
:1071F0002068FFF766FE071E1AD120680299019ADF
:10720000FFF7FCFD019B9F420BD2039B2068DB191B
:107210000293036801375B699847029AFFB21070C6
:10722000F0E7039AF618D2180392ED1AB5E7281C76
:1072300005B0F0BD08B5024801F0A0F808BDC04691
:10724000B407002008B5024801F098F808BDC04610
:10725000F8060020F7B5164F1649381C00F0DEFC82
:107260001549164800F0DAFC1549164800F0D6FC1E
:107270001549164800F0D2FC1549164800F0CEFC1E
:10728000154D03260124281C144900F0C7FC391CA5
:107290000096231C01940022114800F08FFF0096F5
:1072A000291C0194242223230E4800F087FFF7BDF8
:1072B0007408002000080042000C004278080020FA
:1072C000001000427C0800200014004270080020DA
:1072D000001800428008002084080020001C0042A2
:1072E000B4070020F8060020FEE7000008B5034BB5
:1072F0001B68002B00D0984708BDC04688080020B6
:1073000038B50F490F4CA14204D100F055F801F0F7
:1073100027F90BE00C4D8D42F7D00023CA18E8186E
:10732000A24204D2006804331060F7E7FEE79042FF
:10733000EBD0064B064A9342E7D2002204C3F9E79A
:1073400000000020AC02002038A90000AC020020A0
:10735000900E002008B500F02CF8002801D100F0B4
:107360001DF808BD014B18607047C0468808002012
:10737000014B18687047C0468C08002070B5041E89
:1073800008D0054B1D681E1C00F012F833685B1B0B
:10739000A342F9D370BDC0468C08002008B5034B4A
:1073A0001A6801321A6000F0FFFB08BD8C0800204B
:1073B000704700207047000070B5494A1E2153688D
:1073C00002208B430343474953608B6908242343BE
:1073D0008B61454C454B9C829C8A20439882101CB3
:1073E000DA689407FCD5424A012414701478E50742
:1073F00004D53F4C647864B2002CF7DB0124946020
:10740000547864B2002CFBDB3A4D394C65605478FB
:1074100064B2002CFBDB8225354CED01658054788D
:1074200064B2002CFBDB02249C84DC68E606FCD5FD
:10743000314D2E4CE562DD682C4CEE06FBD5A58C5B
:107440002E4E3543A584DD68284CEE06FBD5A58C71
:1074500002263543A584DC682506FCD5234CE46868
:107460006606F8D5DC68E506FCD5002494605478FF
:1074700064B2002CFBDB224D1D4C656055781C4C22
:107480006DB2002DFADB1E6A1E4D35401D621D6A6D
:107490008026B5431D620323A3601B4B63605378B2
:1074A0005BB2002BFBDB00230B72184A4B728B7212
:1074B000CB72174BFF211A60164B174A1B681268D4
:1074C0005C01D20E214011439A06520F12020B1C8E
:1074D0001343124A1385436880221343436070BDEF
:1074E00000400041000400400C060000000800407D
:1074F000000C004001050100B905FF7D040A0000F1
:1075000000070300FFFCFFFF03060100006CDC0224
:107510006401002024608000206080000040004260
:10752000314BFA21186810B5890002F02DF92F4B64
:107530000138984224D82E4A2E4B5060186AC02138
:107540000002000A09060143196200240721946021
:107550001160196A80220902090A12060A431A6296
:10756000254BFC211A6A0A431A62196AFC2292010D
:107570000A431A62196AA022D2020A431A6200E080
:10758000FEE7201C0021013400F0E4F8132CF8D1B0
:107590001A4C63785BB2002BFADB194B6380194BF2
:1075A0005A7ED209012AFAD0E422D2009A803F22E0
:1075B000DA70597E134AC9090129FAD0C0235B0148
:1075C00000201361907000F02DF863785BB2002BFF
:1075D000FBDB0D4A094B5A800C4BDA79D209012AA0
:1075E000FAD041225A7010BD64010020FFFFFF0055
:1075F00010E000E000ED00E000040040000C00405E
:107600001E400000004000422140000000480042AF
:10761000914205D002D9891AC84001E0511A884028
:107620007047000000B5144A517E131CC909012996
:10763000F9D00138042813D81969104A0A401A6190
:107640005A780F218A4302F095F8030509070300D1
:10765000012102E0032100E002210A435A700AE0FE
:107660001169F0231B050B43136153780F218B43E2
:1076700002210B43537000BD00400042FFFFFFF0AA
:1076800010B5041E172C00D81834201C012100F05E
:10769000EBF8182C0CD12A4BDA79D209012AFAD04E
:1076A0001A7802218A431A70DA79D209012AFBD0AA
:1076B000244B5A7ED209012AFAD018225443224A76
:1076C00018691419217C1F2290431140021C0A439F
:1076D0001A61597E1B4AC9090129FAD01178022082
:1076E00001431170597E174AC9090129FAD0117B4B
:1076F00002200143117301211176597E114AC909F3
:107700000129FAD0117B0220014311731A7ED1079F
:10771000FCD50C4A508B80B2597E0A4AC90901290E
:10772000FAD011780224A14311705A7ED209012A9D
:10773000FBD0064B1968064B1A68FFF769FF10BDAE
:10774000004800420040004288A20000680100207A
:107750006C01002010B51824021C201C5043274B3C
:107760001818007A40B2013046D0032944D8081CCA
:10777000211C01F0FFFF02331121624398569A1831
:10778000C3011F4852681B18991840310220087025
:107790000121914059602FE06243985618499A1888
:1077A0005268C3015B189918403106200870012106
:1077B0009140596099611FE051435A561048591839
:1077C0004B68D2011118C8184030062404700120FB
:1077D000984048600B49521850600DE0624398563B
:1077E0009A18C301064852681B18991840310220A4
:1077F000087001219140996010BDC04688A2000028
:10780000004400411044004118235843134AF0B586
:10781000131808241C5701341FD08256104ED20171
:107820005D6801249019231C8668AB401E420BD171
:107830000E1C771EBE41401934404030A50004782C
:107840000426B4432C430470002903D1054952187F
:10785000536002E0024E92199361F0BD88A20000CD
:10786000004400411044004118224243F8B52D4D18
:107870000824AA181457031C621C50D0481C00246A
:107880000C284CD801F076FF071E1E1E1E1E1E1E61
:107890001E0A0A0A0A000124644240E0092902D1B2
:1078A000181C002103E00A2904D1181C0221FFF74B
:1078B00051FF23E000240B2931D1181C0121FFF7CF
:1078C00049FF2CE018225343EA185268EB56012076
:1078D000141C04405508DB01002C11D0124C1B195C
:1078E0005D1930352E780C010F21314021439A1853
:1078F000C9B22970403213781843107000240EE08A
:10790000094E0F279B195D1930352E789A18BE4302
:107910003143C9B229704032137818431070201CCB
:10792000F8BDC04688A2000000440041F7B500241D
:1079300001900D1C261C019A281C131919790A2282
:1079400000F00BF92E21071C281C00F075F80134FB
:10795000C719F619032CEED1019B281CD9790A22EC
:1079600000F0FBF83018FEBD024B08330360002323
:107970004360704708A7000030B503AC044D24787D
:1079800008350560017142718371C47130BDC04614
:1079900008A7000010B5044A041C083204C00422E1
:1079A00001F0F1FF201C10BD08A7000010B5042253
:1079B000041C043001F0E7FF201C10BD044A054BF5
:1079C00008321A6000221A715A719A71DA7170477E
:1079D00008A7000090080020F7B58A18061C0D1CA7
:1079E00001920C1C019B671B9C4207D033682178D5
:1079F0001B68301C984701340028F3D1381CFEBDA9
:107A000008B50368C9B21B68984708BD38B5051C9E
:107A10000C1C081E07D002F0B9F82B68021C5B682A
:107A2000281C211C984738BD08B5FFF7EFFF08BD9B
:107A300008B5FFF7EBFF08BD08B503681B6898475A
:107A400008BD10B50A68041C1268081C211C904768
:107A500010BD000008B50249FFF7D8FF08BDC046B9
:107A600018A7000038B5041CFFF7D0FF051C201C28
:107A7000FFF7F0FF281838BD38B5041CFFF7C6FF24
:107A8000051C201CFFF7E6FF281838BD38B5041C7C
:107A9000FFF7D7FF051C201CFFF7DCFF401938BD9E
:107AA000F0B58DB0161C0BAB002201900C1C1A70A7
:107AB000012E00D80A266D462B35201C311C01F002
:107AC000A7FE201CCFB2311C01F05EFE291C041C55
:107AD000092F01D8303700E03737FFB22F70013D52
:107AE000002CEAD10198FFF791FF0DB0F0BDF8B579
:107AF000041C0D1C161E04D10368C9B21B689847EC
:107B000012E00A2A0DD100290ADA2D21FFF794FF8D
:107B10006942071C321C201CFFF7C2FFC01903E09A
:107B200000E0D2B2FFF7BCFFF8BD08B5FFF7DFFFFA
:107B300008BD38B5041CFFF7DAFF051C201CFFF751
:107B400089FF281838BD08B5002A02D1FFF758FF71
:107B500002E0D2B2FFF7A4FF08BD08B5FFF7F3FFBC
:107B600008BD38B5041CFFF7EEFF051C201CFFF70D
:107B700071FF281838BD38B5041CFFF7E4FF051C59
:107B8000201CFFF767FF401938BD0000014B18604B
:107B90007047C04670010020024B012252421A6019
:107BA0007047C04670010020154A1368581C25D044
:107BB000013B1360002B21D172B6124A124B0432E2
:107BC0009A4207D8BFF34F8F104A114BDA60BFF3C8
:107BD0004F8F11E00F4B197DC807FBD5188B202163
:107BE000FF319208520001431983DA610A4A1A8070
:107BF0001A7DD107FCD5E5E7C046FDE77047C046D2
:107C00007001002000400000030200000400FA059B
:107C100000ED00E00040004102A5FFFF0160704759
:107C2000F7B508AC267804689D1E27686C1EA54130
:107C3000ECB2920705683A4327063A432A60026885
:107C4000072529405068B501002C00D05C0329436A
:107C500001430C435460F7BD30B50368C0251C6870
:107C6000AD0312052A402243C024A4020904214086
:107C70001143196003685A6814435C6030BD03689F
:107C800001211A680A431A60026811680123194227
:107C9000FBD1D1691942F8D17047036802211A68F3
:107CA0000A431A600268D3699907FCD470470368D5
:107CB0001A7ED10702D41A7E9107FCD5704703685B
:107CC00000225A8370470368187E4007C00F704730
:107CD0000368187EC009704703688022197E5242EB
:107CE0000A431A7670470368187E012318407047CC
:107CF0000368188DC0B2704703681A7E01200242E3
:107D0000FBD019857047036801229A757047036894
:107D100001221A757047000070B5036801268D07AF
:107D2000ED0F31401C686D07090729432143196095
:107D300004685100034801F027FD0138C0B22073E8
:107D400070BDC046006CDC02036801211A680A435A
:107D50001A600268116801231942FBD1D1691942E6
:107D6000F8D17047036802211A680A431A60026852
:107D7000D3699907FCD470470368DA699107FCD48A
:107D80001A6802218A431A60704703689A6A520A85
:107D900052021143996203681A7E5107FCD5986A12
:107DA000C0B27047036801211A680A431A6002686A
:107DB000116801231942FBD1D1691942F8D17047EA
:107DC000036802211A680A431A600368DA69910796
:107DD000FCD45A8B30218A4310210A435A8302680B
:107DE000D3695907FCD47047036802211A688A4393
:107DF0001A600268D3699907FCD47047036880222F
:107E000019685968D2020A435A6070470368034AE6
:107E1000196859680A405A607047C046FFFFFBFF67
:107E200030B5036803241D680C40074A59682404D0
:107E30000A40ED0622436D0F5A60052D03D10268FA
:107E4000D3695907FCD430BDFFFFFCFF4900114343
:107E5000036830B5CDB2598B0324090921400129AB
:107E600004D0598B09090C40022CF4D1596AC90A73
:107E7000C902294359620368002A03D11A7ED10737
:107E8000FCD50DE0187E01224008104008D1197E73
:107E90001142F7D05968C02292020A435A6003E0A7
:107EA0005B8B01209B08984330BD03682833197011
:107EB0000268107E0123184003D1518B1942F8D07B
:107EC00003E0528B181C92089043704703682833D4
:107ED0001970036800201A7E510703D55B8B0120BF
:107EE0009B089843704703681868C006400F043821
:107EF00043425841C0B270470368187E4007C00F24
:107F000070470368187E0123184070470368588B38
:107F1000C006C00F70470368187E8007C00F704707
:107F20000368588B0007C00F704703681A68D206B1
:107F3000520F052A02D11A7E9107FCD528331878F2
:107F4000C0B270470368224A30B5934211D0214A2B
:107F5000934211D0204A934211D0204A934211D02B
:107F60001F4A934211D01F4A934230D10E23192247
:107F70000DE0092314220AE00A23152207E00B234F
:107F8000162204E00C23172201E00D231822DCB294
:107F9000154901209B08A0409B0008605B18032046
:107FA000C021890004405D58E000FF248440A543BF
:107FB0002C1CC0258540281C204358508023DB0101
:107FC0001A430A4B5A805A7852B2002AFBDB30BD62
:107FD00000080042000C0042001000420014004261
:107FE00000180042001C004200E100E0000C0040CC
:107FF000F8B5041C151C0E1C1F1CFFF7A3FF201C4A
:10800000FFF73DFEB1001C220A4069072368090CF6
:108010000A431A60226884239375012E1AD108211D
:10802000012D00D110210C4B79431868C00001F0DC
:10803000ABFB236807219A890140D2044903D20C83
:108040000A439A8123680004C20C9889400B4003BC
:1080500010439881F8BDC04664010020F7B5019334
:1080600008AB041C1F780D1C161CFFF76DFE201CAE
:10807000FFF768FFBF070C221743C02292033605A3
:108080001640C02292022D0423683E4301991540F8
:10809000354307221D600A408021236889020A4374
:1080A0005A60F7BD70B5041C0E1CFFF74BFF201C77
:1080B000FFF778FE236814221A600D4B71001D68CB
:1080C0002468281C01F060FB0A49061C281C01F0EA
:1080D0005BFB7D23FA215843C90001F055FB301AA0
:1080E000E668FF23053818409E430643E66070BDEE
:1080F0006401002040420F000120704708B503686A
:10810000014A1B6A984708BD13040000826D436D45
:108110009A4203D0836DC018007D01E001204042E7
:10812000704710B5041C0069FFF7A9FD0023221C4D
:1081300063659C32A365A0341360236010BD00000A
:10814000F0B587B001930CAB1B78002502930DAB03
:108150001B78402603930EAB1B78041C04930FABD3
:108160001B780F1C0593FA239B008360124B00922F
:10817000083303604560291C321C143001F00CFCEC
:10818000201C6565321CA565291C5C3001F004FCCF
:10819000009A231C9C331D605D6027611A72019A4E
:1081A000201C5A72029A9A72039ADA72049A1A730B
:1081B000059A1A7707B0F0BD28A7000030B585B042
:1081C000041C08A8057809A8007800950190FF20F4
:1081D00002900390201CFFF7B3FF201C05B030BDB8
:1081E000F023081C18403038434258417047F023B0
:1081F0001B01194080239B0099420CD0C0239B0097
:10820000994206D080235B000520994204D00020CB
:1082100002E0072000E0062070470F2319400129E3
:1082200005D002394B424B410220C01A00E0002029
:1082300070470000F0B5031C85B00391A433041C03
:10824000182718783B1C4343344E0821F31859561D
:10825000151CFFF709FB231CA53318783B1C43436F
:108260000821F3185956FFF7FFFA231CA7331B7890
:10827000022B0AD1231CB8331878FF2805D04743B6
:108280000821F7197956FFF7EFFA271CA837387835
:10829000FF281AD00121FFF75DFA3B7818225A43D4
:1082A000B3561F4FDB01211CAC31D81908601D49A2
:1082B000B6185B18211C7268B0310B600121914027
:1082C0000A1C211CB4310A601A6001210A1C039B9C
:1082D0002069FFF78DFE291C201CFFF788FF291C51
:1082E000071C201CFFF799FF291C061C201CFFF708
:1082F00077FF391C0090331C20690122FFF790FCA6
:10830000231CA7331978013B1A782069FFF7A4FCD6
:108310002069FFF7C2FC05B0F0BDC04688A200008E
:108320001844004114440041026C436CD01A00D53B
:108330004030704710B5041C201C5C30FFF7F4FF80
:108340000028F9D12069FFF7B2FC10BD08B5143040
:10835000FFF7EAFF08BD026C436C9A4204DB036C32
:10836000406CC01A3F3003E0426C036CD01A0138F5
:10837000704708B55C30FFF7EEFF08BD38B5041C48
:108380000069FFF7A0FC00281FD02069FFF7B0FCB0
:10839000636D3F2201331340A26D934203D0626D9F
:1083A000A21810756365231CA8331B78FF2B0CD013
:1083B000201C1430FFF7CFFF092806DC231C221CE9
:1083C000AC33B4321B6812681A602069FFF78BFC6B
:1083D000002820D0251C5C35281CFFF7A5FF031CB6
:1083E0002069002B15D0231C221CA0339C32196855
:1083F0001268914207D01A68A95C1A683F250132B9
:108400002A401A6001E001214942C9B2FFF774FC19
:1084100001E0FFF77CFC2069FFF75AFC002805D03B
:108420002069FFF759FC2069FFF749FC38BD0000BF
:1084300070B5041C00690D1CFFF755FC00280FD017
:10844000201C5C30FFF770FF002840D008E0EFF3FD
:108450001083DA0723D4214B5A68D205D20D0BD1F1
:10846000231C9C33211C1E68A0310A6801363F2062
:1084700006409642EBD01BE0103AD2B253B2002B2A
:1084800008DA0F231A40083A154B92089200D218C6
:10849000536804E09B08C033124A9B009B58206934
:1084A000FFF721FC0028DBD0201CFFF767FFD7E790
:1084B0001A680968013202408A4204D01968201CF7
:1084C0005C3045541A602069FFF71DFC03E0206909
:1084D000291CFFF711FC012070BDC04600ED00E033
:1084E00018ED00E000E100E038B5826D436D041C3A
:1084F0009A4208D0836D3F22C3181D7D836D0133DE
:108500001340836501E001256D42231CA8331B78CD
:10851000FF2B0BD0201C1430FFF71DFF0A2805DDB0
:10852000231CB033B4341B6822681A60281C38BD81
:10853000002110B5041E8C4204D001F0D1FA211C98
:1085400001F0C6F9081C10BD10B5041E8C4203DAF8
:10855000081AFFF7EDFF0419201C10BD704700003A
:1085600010B5FEF7DDFF01F0C5F9FFF7F7FF0120B9
:10857000FEF704FF084C201C00F060FA201C00F0FD
:10858000D5FAFCF709FBFCF72FFB044B002BFAD0C4
:1085900000E000BFF7E7C046470D002000000000E4
:1085A00008B501F0CDF908BD08B501F0D3F908BD53
:1085B00010B507230F220240141C00093034092A89
:1085C00000DD0734CC54013BF4D210BD70B58229D4
:1085D0001ED1C2B22A495301CB189D69294C800192
:1085E0002C40C025AD052C439C61274C0832201837
:1085F00058610B68520199180C7980204042204341
:108600000871D15C7020814330200143D15435E0A2
:10861000002933D1C2B21A495301CB189E68194DB3
:10862000C0242E40A40526439E60184E8001096890
:108630003018083258605201505C0726B0430126BA
:10864000304350549E6935402C439C610E4C5C6114
:10865000505C7024A0431024204350549C680C4864
:108660008A18204080246403204398609868402141
:10867000800B8003986053790B43537170BDC046E3
:10868000500D0020FFFFFF8FA4090020680B002081
:10869000FF3F00F038B5041C08CC01211A78051CF6
:1086A0000A431A708022201C0021520001F074F944
:1086B0002B689A78D107FCD45C6238BD134BF0B5B7
:1086C0001B6899035A029B01C90ED20E5B0F1F292A
:1086D00000D105211F2A00D11D22072B00D1032321
:1086E00004688E01278D0A491F25394031432185B1
:1086F00001682A400C8DAC4322430A8502681903A5
:10870000108D044B03400B431385F0BD24608000A3
:108710003FF8FFFFFF8FFFFFEFF31083036001239C
:10872000436072B670470368002B02D162B6BFF394
:108730006F8F704737B50569041C6846002D12D14C
:10874000FFF7EAFF019B013B03D3621DD57FEDB22A
:10875000F9E768460193FFF7E6FF0020854217D04E
:10876000206AE36913E0FFF7D7FF019B0025013B77
:1087700004D3221C34321578EDB2F8E76846019331
:10878000FFF7D1FF0020854202D0206BE36AC01AB8
:108790003EBD0000436810B51A68037A01215B01F1
:1087A000D318FF339A7A0A439A72037A42685B01BC
:1087B000D318C2689C6891040B4A090922400A43F5
:1087C0009A60037A42685B01D3189A684021920B41
:1087D00092039A6043681A68037A08335B01D318DE
:1087E0001A790A431A7110BDFF3F00F0F7B5056909
:1087F000041C0E1C171C6846002D1FD1FFF78CFFB0
:10880000019B013B5A1C06D0621DD17F5A1E0029D4
:108810003AD0131CF6E768460193FFF784FF002562
:10882000E369BD4235D0226A934232D25A1CE261DA
:10883000A269D3181B7873550135F1E7FFF76CFF78
:10884000019B013B5A1C08D0221C343215785A1E59
:10885000EDB2002D18D0131CF4E768460193FFF722
:1088600062FF0025E36ABD4226D0226B934241D3CA
:1088700022E0621D0021D17730321678581E8E42D8
:1088800014D1031C5A1CF4D168460193FFF74BFF27
:1088900038E0226A934235D10023E361012323614A
:1088A0006846FFF739FF019B013BEBE71170201C85
:1088B0000193FFF76FFFF6E7226B934222D100236B
:1088C000E36223616846FFF727FF019B013B5A1CC7
:1088D000DAD0221C34320021117001321678581E71
:1088E0008E4201D1031CF2E71170201C0193FFF7A7
:1088F00051FFEAE75A1CE262A26AD3181B7873554B
:108900000135AFE7281CFEBD37B54368027A1B6806
:10891000083252019A18041CD0790123FF21184211
:1089200055D0D371A068656962680140002D1FD1E0
:108930004901521891688904890C2162216A002931
:1089400042D06361A36A68465360FFF7E5FE019B6E
:10895000013B5D1C34D0621D0120D0772F3211788D
:108960005D1EC9B21218002915D111702B1CF0E739
:108970004B01D3189A689204920C2263226B002A4E
:1089800022D000226261A26968465A60FFF7C4FEE5
:10899000019B013B12E0019310706846FFF7C3FE94
:1089A00015E0221C343201201070621DD17F5D1E43
:1089B000C9B230320029EED111702B1C5D1CF0D1F0
:1089C00068460193FFF7AFFE201CFFF7E3FE37BDBB
:1089D00037B500236C46E3710734201C0D1C00F0F2
:1089E0000FFE2B681818286000F0B2FE211C00F062
:1089F00069FE2B681818286020783EBD03290BD12A
:108A00000D4BB2221B685200985C80214942014301
:108A10009954022168220CE001290CD1064B9222C4
:108A20001B685200985C80214942014399540221FD
:108A30002822FF3299547047500D002038B5304B32
:108A400000240121051C1F201C70FEF783FE1F203F
:108A50000121FEF7D9FE2B4B1E2001211C70FEF7D1
:108A600079FE1E200121FEF7CFFE274B2021DA6977
:108A700001200A43DA61254B06241A7802431A7052
:108A8000234B0F22197891431970197821431970DB
:108A900020490C782043087019780A401A701A7817
:108AA00060210A431A701C4B1C4A5A805A78D2091A
:108AB000FCD11B48FEF756FC1A4C201CFFF7EAFDC0
:108AC000201CFFF7FBFD23687F2219780A401A70EB
:108AD0001A7804210A431A701A890C218A431A81D0
:108AE000C121114A890050580002000A50508021CB
:108AF00011601A7802210A431A7001232B7038BDC5
:108B0000640B00204C0D002000040040584400413C
:108B10003C44004159440041000C00400640000024
:108B200055950000500D002000E100E0007800287D
:108B300010D0094B01211B681A898A431A811A8BAC
:108B400008210A431A831A8B04210A431A83034B10
:108B500000221A607047C046500D0020540E0020BD
:108B60000F4B9A69920B92039A611B680222FF33A2
:108B70001A7298798022524202439A711A7A9007A7
:108B8000FCD5084B081C997A7F2210409143014381
:108B90009972997A802252420A439A727047C0466B
:108BA000500D00200050004110B50B790C1C002B1B
:108BB0000BD1081C00F032FD002804D1094B9A6942
:108BC000920B92039A6101200BE000F0C1FD211C81
:108BD00000F0ACFD0028F6D1024B9A69920B92038B
:108BE0009A6110BD500D0020F7B50E1C832A18D1D4
:108BF000CAB235495301CB189C693448B6012040AC
:108C0000C024A405204398613148083286195E616A
:108C10000B685201D15C7020814340200143D15444
:108C200050E0022A4AD12B4A89008D580191002D2B
:108C300048D13820FFF7B4FC274B80270360224B34
:108C40007F004360431D0562866005614561C56123
:108C5000C760DD772F33041CC56205631D70381CA7
:108C60005D7000F06DFEA061381C00F069FEFF230E
:108C700015491E407601A0628E19B168134A072576
:108C80000A40C02189050A43B260A16862681940A0
:108C9000126808314901885CA84303252843885499
:108CA000A268616813405B01A269CB185A60201C5E
:108CB000FFF770FD019B07495C5003E0081C111C85
:108CC000FFF784FCF7BDC046500D0020FFFFFF8F6B
:108CD000A4090020280D002068A7000038B5051C55
:108CE0000124064BA200D258002A06D0211C281CC1
:108CF0000134FFF779FFE4B2F3E738BD74010020D7
:108D000008B5084B8A00D058002803D003689B6838
:108D1000984706E0C9B2044B490159188868800495
:108D2000800C08BD280D0020500D002010B50C1C33
:108D3000FFF7E6FF00280CD0064BE1B21B680831B4
:108D4000490159184A7980235B4213434B7102232E
:108D5000CB7110BD500D002070B5CAB2134B144832
:108D6000540189015918031959609D681149083245
:108D700029408025AD022943996099684026890BD6
:108D8000890399600368510159180D7935430D71B4
:108D90005101591889794D06FAD551015918C979E7
:108DA000CD07FAD50419A068C0B270BD680B0020C9
:108DB000500D0020FF3F00F038B50C4B141C1B6811
:108DC0000D1CFF335A7940210A435A710021FFF7E5
:108DD000C3FFA04200D9201C0023A34204D0044AB0
:108DE0009A5CEA540133F8E738BDC046500D0020C4
:108DF000680B002010B5C9B20C48490143189A68A5
:108E00009204920C3F2A08D9141C9A68403CA4048E
:108E1000920BA40C9203224302E09A68920B9203F5
:108E20009A6041188868C0B210BDC046500D00203D
:108E3000F0B51C1C2F4B85B01B68061C0D1C029244
:108E4000002B51D02C4F3978C9B2002902D11E20F5
:108E5000FEF7DAFC64233B70284BAA00D0580028A8
:108E600005D0036802995B68221C984740E0301CDB
:108E7000291CFFF745FFA04204D2301C291CFFF734
:108E80003FFF041C291C301CFFF7B4FF1C4FE9B244
:108E90004A010191396803928B18FF335A7A0121F4
:108EA0000A4318495A72AB01C9180298221C00F0F3
:108EB0006AFD002C1BD0301C291CFFF721FF002865
:108EC00015D1019B3A6808335B01D318197940200A
:108ED000014319710121D97103995318FF339A7A0B
:108EE00001210A439A7202E00120404200E0201C66
:108EF00005B0F0BD540E00204C0D0020280D0020C0
:108F0000500D0020680B002013B56C460734221C5E
:108F10000123FFF78DFF012801D1207801E0012016
:108F2000404216BDF0B51C1C3F4B85B01B680E1CA3
:108F30000292002B6AD08023DB019C4266D83B4D15
:108F40002978C9B2002902D11F20FEF75DFC6423F5
:108F500000222B700092002C56D0354DF7B22B68B2
:108F600001933B1C0833019A5B01D3189B79DB0901
:108F70001AD0304B3049186800F006FC2F4B1721EF
:108F8000584300F001FC3B1C0833019A5B01D318E5
:108F9000DB799A0708D42A4B9A5D002A38D1421E01
:108FA000002835D0101CEEE7254B00229A55251ECF
:108FB0003F2D00D93F25234AB301D318181C02992D
:108FC0002A1C039300F0DFFC194A7B01D318039A93
:108FD000A9045A619A69890C920B92030A439A6117
:108FE0003B1C019A08335B01D3180222DA715979CC
:108FF000802252420A435A71009B029A5B1952190D
:109000000093641B0292A6E700980BE0012008E0A1
:1090100001229A557B01ED18AB69101C9B0B9B0339
:10902000AB61404205B0F0BD540E0020640B00203F
:10903000500D00206401002040420F00701101001B
:109040009C090020A409002070B50E4D1C1C8B014A
:10905000ED18281C0E1C111C221C00F094FCF6B20A
:109060000949760189194D618A69084B201C134012
:109070008B618B69A2049B0B920C9B0313438B6146
:1090800070BDC046A4090020500D0020FF3F00F035
:10909000F7B5114B01901B780F1C141C002B19D134
:1090A0000E4B1E78002E01D1151C08E00C4D0D480A
:1090B0002E888019361900F066FC2E800AE0002DFB
:1090C00008D0BA192B1C01980021FFF7BDFF3618F4
:1090D0002D1AF4E7201CFEBD460D0020440D002093
:1090E0009A09002099080020F8B50E1C00AF151E43
:1090F000012D28D9D31DDB08DB006A46D21A95461C
:10910000081C00F043FD01306C4640000323207032
:1091100063700222AA420ED23378002B0BD0511C6E
:10912000C9B20136A354A94204D0002302326354C9
:10913000D2B2EFE72A1C0548211CFFF7A9FF431E06
:109140009841C0B200E00020BD46F8BD470D0020A8
:1091500008B5044B00221A70034B04491A88FFF724
:1091600097FF08BD440D00209A09002099080020AF
:10917000F0B5204A87B001230026009102A91370A0
:10918000051C0296FFF724FC03AC092701903A1C4A
:10919000201C311C00F000FC02236370A023E3714B
:1091A000FA232372029B0122DB196380019B627107
:1091B0002371104A009B27701670BB4205D1281CF2
:1091C000211C1A1CFFF764FF11E00B4B01221A70DF
:1091D0000A4B211C3A1C281C1E800296FFF758FFE0
:1091E000281C02A9FFF7F4FB281CFFF7B1FF0120A0
:1091F00007B0F0BD460D0020440D00209A09002064
:1092000070B5CE7892B0051C0C1C022E08D1C9880E
:109210002D48FFF7ADFF031C581E8341D8B251E023
:1092200000F096FA211C00F062FA002803D0C31760
:109230001B1AD80F46E0012E04D1E2882349112AD7
:109240003BD837E0032E3DD1A278002A05D1204932
:10925000E2880B7893422DD82FE0022A03D1A2791D
:10926000281C1C4904E0012A05D1A2791A49281CAE
:10927000FFF73AFF26E0032A24D1184B01A918680A
:10928000FFF796F9164B03A91868FFF791F9154BEC
:1092900005A91868FFF78CF9134B07A91868FFF7A1
:1092A00087F900F055FA09A900F031FAA279281CD3
:1092B00001A9DDE7D2B2002A00D10A78281CFFF705
:1092C000E7FE012012B070BD470D002084A700000A
:1092D00080A7000096A7000078A700000CA08000DF
:1092E00040A0800044A0800048A0800073B5051C09
:1092F00048780C1C0B2878D800F03CFA081C77281A
:10930000773E4306474B686F00206FE0097801AA5B
:10931000002903D111705170281C09E0002313703B
:109320005370334B1B78012B00D11370281C002184
:1093300002234FE08A780023012A04D101AA137086
:1093400053702C4BEEE72A4A137049E08E78012EB9
:1093500007D1284B01AA00211E701170281C331C54
:1093600038E0002E08D1224A01231370224A916965
:10937000890B8903916138E0A178281CFFF7F0FB85
:1093800033E0281CFFF73CFF30E0281C00211B4A7B
:109390001FE00A780020D30628D1281CFFF79EFC86
:1093A000A2781549154B02241A600A682A23FF3354
:1093B000D05C2043D0544A20FF30145C01231C436E
:1093C00014548A69920B92038A610EE00C4A281C9D
:1093D00000210123FFF738FE07E08A78084B1A6066
:1093E000054B9A69920B92039A61012076BDC046A3
:1093F00098080020450D0020500D0020540E00203C
:10940000480D0020F8B54B4B071C1C78002C00D0F1
:109410008FE0494D2868838B19070ED5201C211C2D
:10942000FFF7D4F82B6810201A1CFF32917A014301
:109430009172424A146008229A832B689A8B5007D3
:109440001FD504229A833E4B1A78002A0AD01A7834
:10945000013AD2B21A701B78002B03D11F200121D0
:10946000FEF7D2F9374B1A78002A0AD01A78013A57
:10947000D2B21A701B78002B03D11E200121FEF7F7
:10948000C3F92B68FF331A7AD10626D510221A7237
:109490005A7940210A432C495A710A786023381CB2
:1094A0001A4202D1FFF722FF01E0FFF77DFB0028FF
:1094B00006D02B688022FF33997952420A4301E09B
:1094C000224B20229A712B68FF331A7A500604D55A
:1094D00040221A72597A0A435A722968FE230E8C66
:1094E00000241E40E1B2002E23D0321C0123224171
:1094F0001A4216D0221C2868083252018218D079EC
:10950000184203D1D279DA401A4207D0104BA20098
:10951000D058002809D003681B6898470123A3404E
:109520009E430134092CDDD103E0381CFFF766FAB5
:10953000F4E7F8BD440D0020500D0020540E00202B
:10954000640B00204C0D0020680B0020FF500041F0
:10955000280D002008B50248FFF754FF08BDC0469B
:10956000470D0020014A024B1A607047005000412D
:10957000500D00203F20704713B502686B46D9712B
:1095800007335468191C0122A04716BD08B50069AD
:109590000221FFF7B5FB08BD08B500690321FFF7FD
:1095A000C5FB08BD38B50D1C041C131C0069032144
:1095B0002A1CFFF7B7FC002801D10123636038BDE6
:1095C00010B5054C23685A1C04D103685B699847A1
:1095D0002060031C181C10BDEC010020074A08B5D0
:1095E0001368591C04D0012149421160181C03E082
:1095F00000690221FFF788FC08BDC046EC0100208D
:1096000008B5037803490233037042220248FFF78A
:109610003FFD08BDA8010020470D002010B50178CE
:10962000031C42780020A12908D1212A2FD11848F3
:1096300018490722FFF72CFD012028E0212926D117
:10964000202A05D1134907221148FFF7B5FB04E092
:10965000222A10D19A780F4BDA710E4B9622196894
:10966000D200914210D1DC7901231C400CD1FA20A8
:10967000FEF78CFA0AE0232A09D1DA789B781202E5
:109680001A43054B1A6002E0FEF786FA002010BD6F
:10969000470D00209C010020A4010020064BFA2168
:1096A00089009960054900220831196004495A600F
:1096B00019611A767047C046580E0020A8A700000E
:1096C000470D002070B544680E1C0025002C09D001
:1096D0002368201C5B68311C9847002804DB2D1888
:1096E000E468F3E7281C01E00120404270BD38B572
:1096F00044680D1C002C08D02368201C9B68291C82
:109700009847002802D1E468F4E7201C38BD38B53A
:1097100044680D1C002C07D02368201C291CDB6822
:109720009847E4682D18F5E72C7038BD38B54468C3
:109730000D1C002C08D02368201C1B68291C98478E
:10974000002803D1E468F4E7201C00E0012038BDC4
:10975000064B0122196810B51140054805D10224B5
:1097600004700424447041601A6010BD7C0E002017
:10977000740E002002B4714649084900095C490092
:109780008E4402BC7047C046002934D00123002219
:1097900010B488422CD301242407A14204D2814270
:1097A00002D209011B01F8E7E400A14204D2814280
:1097B00002D249005B00F8E7884201D3401A1A43FD
:1097C0004C08A04202D3001B5C0822438C08A04234
:1097D00002D3001B9C082243CC08A04202D3001BEA
:1097E000DC082243002803D01B0901D00909E3E764
:1097F000101C10BC7047002801D00020C04307B4E3
:10980000024802A14018029003BDC046D9000000E2
:109810000029F0D003B5FFF7B9FF0EBC4243891A07
:109820001847C046002941D010B4041C4C40A4463F
:1098300001230022002900D54942002800D54042DA
:1098400088422CD301242407A14204D2814202D2AF
:1098500009011B01F8E7E400A14204D2814202D2CF
:1098600049005B00F8E7884201D3401A1A434C08CC
:10987000A04202D3001B5C0822438C08A04202D302
:10988000001B9C082243CC08A04202D3001BDC082A
:109890002243002803D01B0901D00909E3E7101C6B
:1098A0006446002C00D5404210BC7047002806D00A
:1098B00003DB0020C043400801E08020000607B41D
:1098C000024802A14018029003BDC04619000000E2
:1098D0000029EBD003B5FFF7A7FF0EBC4243891A5E
:1098E0001847C0467047C04608B500210A2200F05C
:1098F000DFF908BD70B50E4B0E4D0024ED1AAD100A
:109900001E1CAC4204D0A300F35898470134F8E77A
:1099100000F018FA084B094D0024ED1AAD101E1C7A
:10992000AC4204D0A300F35898470134F8E770BD67
:10993000580200205802002058020020A4020020F3
:1099400008B5034B011C186800F076F808BDC04646
:109950005002002008B5034B011C186800F024F8E1
:1099600008BDC0465002002030B50023934208D005
:10997000C55C0133CC18013C2478A542F6D0281BE5
:1099800000E0002030BD10B50023934203D0CC5C32
:10999000C4540133F9E710BD031C8218934202D06E
:1099A00019700133FAE7704730B5002940D0043907
:1099B0000B68002B00DAC9181E4A1368141C002B10
:1099C00002D14B60116033E099420FD208680A1847
:1099D0009A4205D113685268C01808604A6000E0D6
:1099E0004B60216024E08A4203D8131C5A68002A85
:1099F000F9D11D685C198C420BD109686918581897
:109A00001960904214D114685268091919605A609B
:109A10000EE08C4202D90C23036009E008680C18A0
:109A2000944203D114685268001908604A60596072
:109A300030BDC046840E002070B50323CD1C9D436D
:109A40000835061C0C2D01D20C2501E0002D3FDB52
:109A50008D423DD3204B1C681A1C211C002913D0B9
:109A60000868431B0DD40B2B02D90B60CC181EE0E9
:109A70008C4202D1636813601AE0486860600C1C75
:109A800016E00C1C4968E9E7144C2068002803D153
:109A9000301C00F061F82060301C291C00F05CF8DC
:109AA000431C15D0C41C03239C4384420AD1256067
:109AB000201C0B300722231D9043C31A0BD05A429F
:109AC000E25008E0211A301C00F046F80130EED1D7
:109AD0000C233360002070BD840E0020800E002017
